:020000022000DC
:10600000000001200DD7020035D7020059800200A0
:1060100039D702003BD702003DD702000000000044
:106020000000000000000000000000003FD7020058
:1060300041D702000000000043D7020045D702000C
:10604000D19D020047D7020079A20200E1AB020015
:10605000D5A4020047D70200EDA0020029A3020048
:10606000B1AB0200C1AB020047D7020047D7020024
:1060700047D7020047D7020047D7020047D70200A0
:1060800047D702008179020047D7020047D70200B4
:106090001D7A020047D7020011CD020047D7020047
:1060A00047D7020047D7020047D7020047D7020070
:1060B00047D7020047D702000000000000000000A0
:1060C00047D7020047D7020047D7020047D7020050
:1060D00047D7020047D7020047D702000000000060
:1060E00000000000000000000000000000000000B0
:1060F00000000000000000000000000000000000A0
:10610000000000000000000000000000000000008F
:10611000000000000000000000000000000000007F
:10612000000000000000000000000000000000006F
:10613000000000000000000000000000000000005F
:10614000000000000000000000000000000000004F
:10615000000000000000000000000000000000003F
:10616000000000000000000000000000000000002F
:10617000000000000000000000000000000000001F
:10618000000000000000000000000000000000000F
:1061900000000000000000000000000000000000FF
:1061A00000000000000000000000000000000000EF
:1061B00000000000000000000000000000000000DF
:1061C00000000000000000000000000000000000CF
:1061D00000000000000000000000000000000000BF
:1061E00000000000000000000000000000000000AF
:1061F000000000000000000000000000000000009F
:1062000010B5054C237833B9044B13B10448AFF3F0
:1062100000800123237010BD08A3002000000000AF
:10622000B077030008B5034B1BB103490348AFF334
:10623000008008BD000000000CA30020B077030020
:10624000154B002B08BF134B9D46A3F5803A002148
:106250008B460F461348144A121A07F0A7FB0F4B40
:10626000002B00D098470E4B002B00D09847002001
:10627000002104000D000D48002802D00C480BF04E
:10628000A9F907F071FA2000290000F0A9F807F039
:106290005BFA00BF000008000000012000000000C1
:1062A0000000000008A30020FCB70020D515030063
:1062B000A52703008BDF70477FB5037CF82B71D1D6
:1062C000C37B592B6ED1837B712B6BD1437B992B75
:1062D00068D1046A3448A17807F0B2FBA578002D94
:1062E00060D1324EE27833689A425BD0294630481A
:1062F00000F046FC21792F4807F0A2FBE3782E4AF4
:1063000033602379136010212C4A684607F0E8FCBB
:106310000121684600F034FCA37962791B0403EB89
:106320000263E27903EB0223227A1344244A1360C6
:10633000A37A627A1B0403EB0263E27A03EB022383
:10634000227B13441F4A1360637BA27B07EE903AC3
:106350001D4BF8EE677AC3ED007AE37B1B0403EB79
:106360000263227C03EB0223627C1344174A13600E
:10637000E37CA27C1B0403EB0263227D03EB02237C
:10638000627D1344124A1360A37D07EE903A114BCD
:10639000F8EE677AC3ED007AE37D012B08BF1D4656
:1063A0000D4B1D7004B070BD385A03002CA30020A3
:1063B000505A03005D5A03004CA30020725A030098
:1063C00030A3002034A3002028A3002044A30020F1
:1063D00048A3002040A30020B8980020000000003F
:1063E0002DE9F04F2DED068B4FF40041B7B00020A2
:1063F00002F086FD18B1C24AEE2101F06EFAC14CDE
:1064000002F09CFCC04807F07DFB94E80F000EAD45
:10641000103485E80F0094E80F0012AE86E80F00F4
:1064200000231A463146284602F050F820B1B44AFB
:1064300040F2051101F051FA284600F029FB002135
:10644000B24800F09DFBB24807F05CFBB14B0FCBAC
:1064500016AC84E80F00132214232146AE48CDE980
:10646000162303F0B3FB20B1A54A4FF4887101F065
:1064700034FAA94800F03CFCA84807F043FB00F0C0
:1064800067FFA74807F03EFB602200211EA807F027
:106490008DFAA44806F0ACFFA34B0FF23C29D9E9D2
:1064A0000089186006F09EFE0026354600279F4BA7
:1064B0009F4C43F0010AFFF7FDFE1EA800F0A4FF69
:1064C00006F084FF4FF0320B4FF47A40D047BBF117
:1064D000010BF9D12378042BEDD8DFE813F0050088
:1064E00019004F01B70128020021084600F0E4FF1F
:1064F00000231EA8237000F065FF10B98D4B1968AA
:1065000011B101232370D2E78B4800F039FBCEE7AD
:10651000884B1B68022B40F08480884BD3ED00AA87
:10652000874B93ED00AA874BD3ED009A864B93EDF2
:10653000009A864B93ED008A854BD3ED007A38EEB6
:10654000678A79EEEA8A68EE087AE8EEA87A17EEAA
:10655000900A0EF04DFD41EC100B0EF0B7FA51EC25
:10656000100B0FF075F8F4EE69AA7A4BDFED7A9A0A
:106570001860F1EE10FA3CD0C8EE287A17EE900AB7
:106580000EF036FD41EC100B0EF0EAF854A3D3E9FF
:10659000002351EC100B0EF083FD0FF059F8F5EECF
:1065A000C08AF1EE10FA07EE900A08D5F5EEC07A2F
:1065B000F1EE10FACCBF77EEE97A77EEA97A77EEB2
:1065C000CA7AF4EEE97AF1EE10FA1EDD9FED637AF5
:1065D00077EEC77A624B39EE4A9AC3ED007A614B87
:1065E00083ED009A0223237000F058FC00F038FC81
:1065F0005DE7B5EEC08ADFED5C7A9FED5C7AF1EE87
:1066000010FAD8BFF0EE477AD9E79FED597AF4EE49
:10661000C77AF1EE10FA44BF9FED507A77EE877A91
:10662000D8E70021534800F0ABFA01232370384625
:106630001D440EF0DDFC02460B464F4807F000FA01
:106640001D2D7FF734AF07F065FA0EF0BFFC0EF09A
:10665000FFFF0EF0CDFC24A3D3E900230EF04AFE89
:106660000EF0F6FF07460EF0C3FC21A3D3E900238A
:1066700004460D460EF090FF28B13221084600F086
:106680001BFF002513E742464B46204629460EF0E5
:1066900083FF58B116A3D3E90023204629460EF004
:1066A0008FFF18B16FF027012820E8E712A3D3E984
:1066B0000023204629460EF06FFF50B142464B465C
:1066C000204629460EF07CFF18B128216FF02700E4
:1066D000D5E70021D2E700BFCDCCCCCCCCCCE43F79
:1066E000872EDE7913A64C400000C0FFFFFFDF417C
:1066F0009A9999999999D93FCDCCCCCCCCCCEC3FF7
:10670000865A0300085A03008D5A03009E5A03005C
:10671000AC5A0300285A0300505B0300C15A03001F
:10672000D25A0300A898002048B70020805A0300DE
:1067300050A300204CA30020E65A030030A3002001
:1067400028A3002044A3002040A3002048A3002049
:1067500034A3002038A30020000034430000B443D9
:1067600024A300203CA300200000B4420000B4C2D7
:10677000000034C3EA5A0300F75A030000F094FB08
:10678000DFF8BCA2A6480021B0EE418A00F0F8F97B
:10679000DAED007A77EEC87A17EE900A0EF028FC50
:1067A000A04ACDE9000110211AA807F099FA0121A9
:1067B0001AA800F0E5F91EA800F004FE10B99A4BE3
:1067C0001B6823B900232370012198489DE6FDEE44
:1067D000C87A9AED007A17EE902AFDEEC77A002A61
:1067E00017EE903AB8BF5242002BB8BF5B429A42B4
:1067F00004DB03232370BDF88C6058E637EE488A2B
:10680000DFED8B6AFDEEC87AB5EEC07A17EE903AEE
:10681000002BB8BF5B4207EE903AF8EEE77AF1EE54
:1068200010FA77EEA67AD8BFF1EE677ABDEEE77A76
:10683000F1EE677A17EE103AFDEEE77A19B217EE2D
:10684000903A18B200F038FE02235BE6BDF88C30B7
:10685000DFED787ADFF8FCA19E4283BFC6F57F4268
:10686000FF32D3189B1B08EE103AB8EEC88A28EE08
:10687000278AF1EE047AB4EE678ADFED6F7AF1EEE3
:1068800010FAC8BFB0EE678A00F00EFB00216B481B
:10689000F0EE418A00F074F9DAED007A77EEC87A0A
:1068A00017EE900A0EF0A4FB5E4ACDE9000110211C
:1068B0001AA807F015FA01211AA800F061F91EA81C
:1068C00000F080FD00287FF47DAF574B1B68002B44
:1068D0003FF478AFDAED007AF4EEC87AF1EE10FA10
:1068E00001D804230EE6564BD3ED007A37EEE81AB2
:1068F000B8EE087AB5EEC01AF1EE10FAF0EE087AAA
:10690000C8BFB0EE677ADFED4F7A77EE276A77EE91
:10691000C77AFDEEE66AFDEEE77A16EE903A19B216
:1069200017EE903A18B200F0C7FD0323EAE500F035
:10693000BBFA00214448B0EE418A00F021F9434BF4
:106940000393D3ED007A77EEC87A17EE900A0EF033
:106950004FFB344ACDE9000110211AA807F0C0F915
:1069600001211AA800F00CF91EA800F02BFD8246A8
:1069700000287FF427AFDFF8B0B0039BDBF80020DE
:10698000002A3FF41FAF2E4A93ED007AD2ED006A41
:1069900078EE667AFDEEE77A17EE902A77EE667A61
:1069A000002AFDEEE77AB8BF524217EE903A002B6C
:1069B000B8BF5B429A420BDB01211C48217000F0FA
:1069C000DFF85146224800F0DBF8CBF800A06EE576
:1069D00037EE488A9FED166AFDEEC87AF4EEC76A74
:1069E00017EE903A002BB8BF5B4207EE903AF8EEF4
:1069F000E77AF1EE10FA77EE867A58BFF1EE677A11
:106A0000BDEEE77AF1EE677A17EE103AFDEEE77A1F
:106A100019B217EE903A18B200F04EFD61E700BFD0
:106A2000035B03000C5B03004CA30020D66703004C
:106A300000004842B8DDB238000000000F5B0300E0
:106A400024A300200000C8421D5B03003CA30020DB
:106A5000275B030038A300201FB50022009102230A
:106A600069460430CDE90132039203F07DFE05B0A2
:106A70005DF804FB38B5054D0A2445F001054FF4D7
:106A80007A40A847013CFAD138BD00BF705B0300D3
:106A900073B502AC0E2324F8043D374E2146306016
:106AA000FFF7DAFF0546C0B1344A182100F015FFA0
:106AB000284602B070BD314A2221F7E72F4A2C2127
:106AC000F4E72E4A3621F1E72C4A4021EEE72B4A23
:106AD0004A21EBE7294A5421E8E7FFF7CBFF0223DD
:106AE00021463068ADF80430FFF7B6FF05460028B0
:106AF000E1D1FFF7BFFF4FF4804321463068ADF886
:106B00000430FFF7A9FF05460028D7D1FFF7B2FFF1
:106B100048F2010321463068ADF80430FFF79CFFCE
:106B200005460028CDD1FFF7A5FF4FF400432146CD
:106B30003068ADF80430FFF78FFF05460028C3D159
:106B4000FFF798FF44F2030321463068ADF80430A4
:106B5000FFF782FF05460028B9D1FFF78BFF4023DE
:106B600021463068ADF80430FFF776FF054600286F
:106B7000B0D1FFF77FFF9BE794A30020765B030073
:106B80002DE9F34107460C4607F05AF9102806464E
:106B90003CD85CBB02A9202321F8043D1F4B186898
:106BA000FFF75AFF0446C8B9DFF870800025B542E8
:106BB00038BF7B5DD8F8000028BF20239A0862F018
:106BC0007F029B0101A98DF804208DF80530FFF7A5
:106BD00043FF0446F0B1124A8E2101E0104A6D21B4
:106BE00000F07BFE204602B0BDE8F081012C0FD101
:106BF00002A9302321F8043D084B1868FFF72CFF49
:106C000004460028D0D0064A7521E9E70924E9E7BF
:106C10000B24E7E70135102DC9D1E3E794A3002049
:106C2000765B0300704700007FB5400003AB8DF832
:106C30000C108DF8150000210B48049300910223DD
:106C40008DF80D208DF8143004AA012300688DF80A
:106C5000161003F025F818B1044A322100F03DFE69
:106C600007B05DF804FB00BF98A30020005C0300A0
:106C700000B58BB00DF10F030693012398408DF8FA
:106C80001D0018438DF80F108DF8250000210F48C6
:106C900000910DF117028DF81C308DF81E3008920E
:106CA0008DF8243006AA022300688DF817108DF89D
:106CB000261002F0F5FF18B1054A282100F00DFE5C
:106CC0009DF817000BB05DF804FB00BF98A30020EF
:106CD000005C030038B5054D044645F001054FF44E
:106CE0007A40A847013CFAD138BD00BFF05B0300F1
:106CF00007B5234B234A186092E803006B4683E8EC
:106D00000300214A2148194603F00AFE18B1204A1F
:106D1000432100F0E2FD80226B216820FFF784FF11
:106D20006420FFF7D7FF00226B216820FFF77CFF6C
:106D300000226A216820FFF777FF0320FFF7CAFFD0
:106D4000022237216820FFF76FFF18221B216820DD
:106D5000FFF76AFF00221C216820FFF765FF012270
:106D60000B210C20FFF760FF6420FFF7B3FF022226
:106D70000A210C20FFF758FF03B05DF804FB00BFA9
:106D800098A30020E45B0300256C0200F85B03007D
:106D9000005C030000000000F0B543218BB06820C8
:106DA000FFF766FF442104466820FFF761FF40EAD1
:106DB000042006B245216820FFF75AFF4621044609
:106DC0006820FFF755FF40EA042005B247216820FC
:106DD000FFF74EFF482107466820FFF749FF07EEFF
:106DE000906AF8EEE77A044617EE900A0EF000F982
:106DF00019A3D3E900230EF07DFA0EF029FC07EE6B
:106E0000905AF8EEE77A019017EE900A0EF0F0F83B
:106E100011A3D3E900230EF06DFA0EF019FC44EA39
:106E20000724009020B207EE900AF8EEE77A17EEFA
:106E3000900A0EF0DDF808A3D3E900230EF05AFA09
:106E40000EF006FC9DED010ADDED000A01EE100AD0
:106E50000BB0F0BDAFF300806666666666663040D4
:106E600010B50B4803F04EFE044670B9094B0848B4
:106E700000229A605A601A6003F05EFE044803F034
:106E80000BFE054B20461C6010BD0820FCE700BF30
:106E9000F85B03009CA30020A8A30020014803F096
:106EA00017BE00BFF85B030000B52DED028B00217B
:106EB0008BB02D4803F056FE2C4A9FED2D7A1368B7
:106EC0001060C31A07EE903AF8EE677A87EE878A69
:106ED000FFF762FF274BF6EE007AB4EEE71AF1EE09
:106EE00010FA06DCBEEE007AB4EEC71AF1EE10FA24
:106EF00005D593ED027AA8EE017A83ED027AB4EE1D
:106F0000E70AF1EE10FA06DCBEEE007AB4EEC70A2C
:106F1000F1EE10FA05D593ED007AA8EE007A83ED34
:106F2000007AF4EEE70AF1EE10FA06DCFEEE007AE3
:106F3000F4EEE70AF1EE10FA05D5D3ED017AE8EEAA
:106F4000207AC3ED017A93E807000AAB03E9070052
:106F50009DED070ADDED080A9DED091A0BB0BDECA9
:106F6000028B5DF804FB00BFF85B0300A8A30020C0
:106F7000002474499CA300202DE9F843064601F043
:106F800003F80024A0462746002500E00446042D0F
:106F9000FDD801A353F825F0AD6F02008F6F0200FA
:106FA000D76F0200F56F020011700200301900F077
:106FB000B3FF05280346EAD0002838D10134E4B2F3
:106FC000022CE4D13378AA2BE0D17378552B0CBF77
:106FD00002250024DBE706EB0409484600F09CFF8D
:106FE00005280346D3D010BB013499F80070E4B2F1
:106FF0000325CCE7301900F08FFF05280346C6D0E3
:10700000A8B90134E4B2FB1C9C42C8BF0425BEE70A
:10701000F91C304600F0C8F9F319DB78834205D03B
:10702000B8F1030F06D008F10108ADE700231846B8
:10703000BDE8F883004BFAE724FAFFFF2DE9F04F93
:107040008478032304F1020C06271C444FF0020E3F
:1070500098464FF004094FF0010AC2189C4501DA26
:10706000BDE8F08FC65C5578013E142EF6D80FF2BD
:10707000080B5BF826F000BFCD7002005D700200C7
:10708000AF710200CB710200E971020011720200BF
:107090005D7002005D7002005D7002002F720200E0
:1070A0004B7202005D700200637202005D700200AC
:1070B0005D7002009B7202005D7002005D70020054
:1070C000FD7202005D700200177302000F2D40F088
:1070D0003581D678957845EA0625CD831D1D465D18
:1070E00006F001060E71465DC6F34006CE70455DA2
:1070F0005E1DC5F380058D70855D05F001054D7041
:10710000855DC5F340050D709D1D465D06F00106C9
:10711000CE71465DC6F340068E71455DC5F38005B0
:107120004D71167AD57945EA06254D82967A557ABB
:1071300045EA06258D82D57A8D76157BCD7603F1CD
:107140000D05465D06F001068E73465DC6F34006EA
:10715000CE73455DC5F380050D74957B062D20D05B
:1071600012D8C5B1022D19D0D27B81F8202003F1AD
:1071700010051133425D02F001020A77425DC2F34D
:1071800040024A77DBB268E7122D0DD0162DEBD105
:1071900081F82190E8E781F82150E5E781F821A006
:1071A000E2E781F821E0DFE781F82180DCE7032DC9
:1071B00040F0C480957881F82C50D57881F82D5016
:1071C000127981F82E200533DCE7072D40F0B680D8
:1071D000D678957845EA06254D845579127942EAA4
:1071E00005228A840933CDE7062D40F0A780D678A2
:1071F000957845EA06258D815679157945EA062563
:107200004D81D579927942EA05220A810833B9E79E
:10721000022D40F09380D678957845EA0625CD82F8
:107220005579127942EA05220A830433AAE7042D2C
:1072300040F08480957881F82F50D57881F83050CF
:10724000127981F8312006339CE7042D76D19578A8
:1072500081F83250D57881F83350127981F8342092
:10726000F1E7B5FBF7F607FB1656F6B2022E65D12D
:1072700092F806B0567946EA0B26CE8492F808B00A
:10728000D67946EA0B260E85967A527A023342EA7E
:1072900006224A8555FA83F374E7102D4ED19D1CC2
:1072A0001233465D06F0010681F84460465DC6F380
:1072B000400681F84460465DC6F3800681F844606C
:1072C000455DC5F3C00581F844505679157945EA06
:1072D0000625A1F84850D679957945EA0625A1F802
:1072E0004A50567A157A45EA0625A1F84C50D57AC7
:1072F000927A42EA0522A1F84E2043E70C2D1DD1D7
:10730000D2F802508D63D2F80650CD63D2F80A202D
:107310000A640E3336E70D2D10D195786E1E754236
:10732000754181F85050D2F803504D65D2F807509E
:107330008D65D2F80B20CA650F3323E7234421E77C
:107340000378013B012B01D800F01EBE70470000FE
:1073500030B5104D0FCD8BB004AC0FC495E80300D1
:107360000D4B0E4A00934FF4806384E80300CDE98F
:10737000022301930A4A0623694604A800F08AFD05
:10738000044618B1074A2A2100F0A7FA20460BB09C
:1073900030BD00BF685C0300AFA30020AFA7002092
:1073A00041730200805C030010B5821C0023141A94
:1073B000A14201DC184610BD12F8014B6340F6E70C
:1073C000FFF7F2BF827B0D4910B5AAB10B7883F0AD
:1073D00001030A70C27B0A491AB10C78002C08BF5D
:1073E00013460A70027C07491AB10878002808BFC2
:1073F00013460A70184610BD1346EAE7ACA30020F6
:10740000ADA30020AEA3002030B5A5B08C22002192
:10741000054601A806F0CAFA01A8FFF7ADFD041E53
:1074200003DB294601A8FFF709FE204625B030BD41
:1074300030B5C1B00C460546FE2200210DF1020018
:1074400006F0B4FA45F2AA53224629460DF103008C
:10745000E51CADF800308DF8024006F00DFA294623
:107460006846FFF7ADFF0DF805000024A54201DADC
:1074700000200DE01DF8040000F066FDC31E012B86
:1074800004D8013CE4B20134E4B2EFE70028FAD0BA
:1074900041B030BD07B540F20143ADF80210ADF880
:1074A000040006216846ADF80030FFF7C1FF03B0C5
:1074B0005DF804FB000000002DE9704380EAE073F2
:1074C00081EAE174A4EBE174A3EBE0739C42D4BFC6
:1074D00004460C46814205460E4627D008180DF09A
:1074E00075FD8046701B89460DF070FD02460B4607
:1074F0000DF020FC0EA3D3E900230DF0FBFE0B469C
:107500000246494640460DF0F5FE0EF079F800F5CA
:107510000043B3F5803F01D2012801D86442012025
:1075200021B200B2BDE87043FFF7B4BF0020F7E717
:107530000000000000C05E4038B5054D044645F02F
:1075400001054FF47A40A847013CFAD138BD00BF8D
:10755000B05D03007FB505460E46144672B601F0D5
:1075600001FF01F035FD0028FBD13E4806F0CAFAC4
:1075700041F201039D4264D006D8012D12D031465C
:10758000394806F05DFA10E044F201039D425AD0FA
:1075900044F202039D42F2D122886168334806F02A
:1075A0004FFA02E0324806F04BFA02F0ABFC08B9A1
:1075B00002F074FC0023ADF80C308DF80E3003A9F6
:1075C000012319208DF80D3002F0A6FC03A9182024
:1075D00002F0A2FC03A9172002F09EFC192002F081
:1075E00057FD182002F054FD172002F051FD4FF412
:1075F000FA70FFF7A1FF192002F01CFD182002F01D
:1076000019FD172002F016FD3220FFF795FF192013
:1076100002F03EFD182002F03BFD172002F038FD7D
:107620004FF4FA70FFF788FF192002F003FD1820CD
:1076300002F000FD172002F0FDFCFA20FFF77CFFAE
:10764000CCE70C48AFE7A568284602F0ADF92368FF
:1076500001960093024663680748294606F0F0F950
:10766000A3E700BFEF5C03008B5D0300465D0300F2
:10767000075D0300245D0300615D030007B502F0B0
:1076800041FC08B902F00AFC0023ADF804308DF883
:10769000063001A9012319208DF8053002F03CFCC9
:1076A00001A9182002F038FC01A9172002F034FCCF
:1076B000192002F0EDFC182002F0EAFC172002F07D
:1076C000E7FC4FF4FA70FFF737FF192002F0B2FC25
:1076D000182002F0AFFC172002F0ACFC3220FFF7BC
:1076E0002BFF192002F0D4FC182002F0D1FC172047
:1076F00002F0CEFC4FF4FA70FFF71EFF192002F0E3
:1077000099FC182002F096FC172002F093FCFA2056
:10771000FFF712FFCCE70369C1688B429DBF826807
:10772000D21802F1FF3203F1FF3394BF501A581AF6
:1077300070472DE9F041D0E902670446F61B406826
:10774000964288461546384405D906F095F83D44DA
:10775000E560BDE8F0813246AD1B06F08DF82A46A3
:1077600008EB0601606806F087F8F1E72DE9F843B9
:10777000C5680646894617464FF000083469B36865
:107780007068A54228BFE418013C621B5C1BBC4228
:1077900028BF3C46944228BF144649462844224606
:1077A00006F06AF8B3682544AB4208BF00253F1BCA
:1077B000A044A144F560E1D14046BDE8F883000053
:1077C00010B5114C114AA2610223C4E90433104BD5
:1077D000E361A2644FF400730E4A2362E264002363
:1077E00010220D49A362E01D6362E362A365636535
:1077F000E365226506F0BCFA0849204606F0B8FAAF
:107800002023A37110BD00BF4CB70020B65D03005C
:10781000BFAB0020AFAB0020BF5D0300C35D030022
:10782000F8B5184C182300FB033503FB0040254432
:10783000C46A012C0F46164611D003D3022C1BD06C
:1078400000240AE02846FFF766FF864205D8324644
:1078500039462846FFF76DFF34462046F8BD2846D6
:10786000FFF759FF8642344628BF04462246394670
:107870002846FFF75EFFF0E72846BDE8F840FFF72F
:1078800075BF00BF4CB7002073B50D4B1B78044685
:107890000D4616460BB9FFF793FF02A8002300F828
:1078A000013D00F081FB324629462046FFF7B8FF34
:1078B00004469DF8070000F0A7FB204602B070BD0B
:1078C0004CB70020FFF77CBF10B511461C461A4686
:1078D0000020FFF7D9FF204610BD00B583B002900D
:1078E0000091019244F2010071466A46FFF732FEB0
:1078F00003B000BD094A537891780133DBB2994255
:1079000008BF0023117899421FBF037050781823D5
:1079100003FB002014BF043000207047C0AD0020DE
:1079200073B5054602A8002400F8014D0E4600F08C
:107930003BFB0DF10600FFF7DDFF90B106700A4B2F
:107940009DF8062045605A709DF8070000F05CFB2A
:1079500024B9064B4FF48012C3F80021204602B030
:1079600070BD0424F0E700BFC0AD002000E100E0DE
:10797000024B4FF43C6043F001031847D05D030015
:10798000F8B51F4B1F491B680025C1F84051C1F8CD
:107990004451C1F84851C1F84C51C1F80051C1F8E7
:1079A00004514BB3D1F8044517490968641A24F00F
:1079B0007F442F461A68A24209D8A41A15441A7C9B
:1079C000DE691AB11F74D3E905209047AEB90F4B99
:1079D0000F4A197813788B4205D10133DBB2022BA1
:1079E00008BF0023137012780A4B43F822500A4B49
:1079F0004FF48012C3F80021F8BD3346DAE700BF28
:107A0000E0AE002000100140DCAE0020D8AE002027
:107A1000D9AE0020D0AE002000E100E02DE9F74F04
:107A20009C4A9D49137809789C4D99423CD001337A
:107A3000DBB2022B08BF0023137099491278994BCF
:107A40000F6853F822003B1823F07F4300220B609D
:107A50002B6816461446944613B942B12B6006E0D3
:107A6000196881420ED902B12B60091A19604FF0D2
:107A700001082B68DFF834A200930027BEB9DFF8B5
:107A800034B260E0401A0C44D968C3F800C0D3F89F
:107A90001CE031B13A1922F07F42C3E90121DE61D5
:107AA0001E4601227346D7E70026B046E1E734467A
:107AB000F6697B4A63681268DFF8FCC1A068991A0E
:107AC00021F07F41614500F2A5800144216001223F
:107AD00022742A680023C4E90133E361002A40F0DC
:107AE000A2802C60CAE75A1C9BF80210D2B29142C5
:107AF0008BF8002004BF00228BF80020182202FB24
:107B000003B32A6819799C68022974D003297ED0AE
:107B1000012918D1217CB1B9DA6862601A69A260C2
:107B20005A699B69A361604BE2601B78002BC0D04F
:107B30006160BEE79C4200F090809946DB69002BB3
:107B4000F8D1002323749BF800309BF801209A425F
:107B5000C9D12B682FB9009A934202D1B8F1000F16
:107B600043D0002B41D0D3F800A0504D4C4BD5F85A
:107B700004751C68DFF844813E1B98F8003026F03D
:107B80007F4603369BB94FF48033C5F84433C5F8BC
:107B90000433474B4FF400324FF00109C3F8802102
:107BA0001A60C5F80090FFF7E3FE88F80090B24530
:107BB0002CBF5444A41924F07F44C5F84045D5F89F
:107BC0000435DB1B23F07F43E41B033324F07F44A5
:107BD000A3420AD9D5F80435C5F84035FFF7C8FEE9
:107BE000334B4FF40032C3F800212F4B00221A70A0
:107BF00003B0BDE8F08F13469146A0E71174D26937
:107C00000123002AFAD1002B9DD02A609BE7002394
:107C10001946F6E7D31A23F07F43834234BFC31AD1
:107C20000023236053E721681368994213D8591A37
:107C30001160E26155E7091AD8691A4638B103465E
:107C400018688842F7D3401A186018461346216016
:107C5000E061DC6112E71346F2E74C450DD1D369D0
:107C60002B6053B90E4801920121CAF80810036035
:107C70000D4B1970FFF77CFE019AE1692368C9F882
:107C80001C1011B1086803440B602B689A4218BF9E
:107C9000012756E7D8AE0020D9AE0020E0AE002084
:107CA000DCAE0020D0AE0020CCAE002000100140A1
:107CB00000E100E0C0AD0020FEFF7F00CDAE00205F
:107CC000F8B5194E194D1A4F4FF40033C6F88030ED
:107CD00001244FF48033C5F84833C5F808336C608D
:107CE000FFF746FEAC6000243C60FFF741FE114BFD
:107CF0001C70114B0B221C809A70104B1C60104B97
:107D00001C70104B4FF480121C70E023C6F88021C9
:107D100086F814333260C5F8084586F81133D5F873
:107D200004353B602046F8BD00E100E00010014052
:107D3000DCAE0020CDAE0020C0AD0020E0AE0020C3
:107D4000D8AE0020D9AE0020074B9B784BB132B1A2
:107D500028B10368187C20B959745A61704707200C
:107D600070470820704700BFC0AD00202DE9F743E1
:107D70001D4FBB7805460E4690469BB390B3042931
:107D80002ED9436973B3437C02A80024012B00F869
:107D9000014D0CBF8946A14600F006F90DF1060021
:107DA000FFF7A8FDD0B101230370104B4560D3F855
:107DB0000435C0E90498C0E902369DF806307B70AE
:107DC0009DF8070000F020F924B9094B4FF4801208
:107DD000C3F80021204603B0BDE8F0830424EFE798
:107DE0000724F7E70824F5E7C0AD002000100140A4
:107DF00000E100E0064A92783AB130B1426922B11E
:107E0000002202740221FFF78BBD0820704700BFDB
:107E1000C0AD00200648074A03780749D35C012219
:107E200013B1043003F076BF0C3003F0C7BC00BFC1
:107E3000BC980020D0B70020E8AE002013B504782D
:107E4000012C10D104238DF8003043681B788DF885
:107E50000430FFF7DFFF0D4B1C700D4B1B686846AD
:107E6000984702B010BD022C06D1C3688DF80040BF
:107E70000193FFF7CFFFF0E7002CF2D102A8032314
:107E800000F8083D024B1B68EAE700BFE9AE00209E
:107E9000E4AE0020F0B51B4D064617469C460FCDBC
:107EA00089B06C460FC495E80F0084E80F00736931
:107EB0000693337C8DF81CC0003318BF01238DF866
:107EC0001430737C1048002B14BF0E2300238DF850
:107ED0001530F3680293B3680393336801937368B2
:107EE00000930A4B1F600A4B00221A706946094A28
:107EF00000F018FC20B93368013301D0FFF78AFF86
:107F000009B0F0BDD85D0300BC980020E4AE0020AD
:107F1000E9AE00203D7E020010B5044618B90749BD
:107F2000762004F0B9FF064B1A782AB1054A0020E2
:107F300012782270187010BD0520FCE7F85D030070
:107F4000E9AE0020E8AE002008B50C490C4A0870E4
:107F50000C480378D35C01224BB1043003F068FE77
:107F6000112808D0002814BF0320002008BD0C30C1
:107F700003F0B2FBF4E70420F8E700BFEAAE00200C
:107F8000D0B70020BC98002000207047EFF3058395
:107F9000C3F308032BB9EFF31480C04300F00100D2
:107FA000704701207047000070B50446FFF7EEFFF0
:107FB000012803D01049432004F06EFFEFF3108630
:107FC00072B60E4A9068012398B993600C4B0D4D20
:107FD000D3F8801029401160C3F88050D3F8841082
:107FE00051604FF0FF32C3F88420207006B962B6AA
:107FF00070BD2370FAE700BF435E0300C4B70020E2
:1080000000E100E0FC06FFBD10B50446FFF7BEFF2F
:10801000012803D00949512004F03EFF084B9A681B
:108020005AB154B9EFF3108172B6064A186810605D
:10803000586850609C6001B962B610BD435E030091
:10804000C4B7002000E100E0024B1B6800219868E3
:1080500005F07EBDF89800201EF0040F1CBFEFF362
:1080600009800AE0EFF308800549064A884201D8F2
:10807000904202D88D464FF00000034B1847000095
:108080000000012000E000208D8002002DE9F34770
:10809000044601F067F900F09BFF0028FBD1334D47
:1080A000334E2888A2693349B76A000440F00100C2
:1080B00001F008F92888E36801930004A36800939D
:1080C0002D49D4E9002340F0010001F01BF9288874
:1080D000E36900930004D4E9042340F00100274938
:1080E00001F004F9F36A980706D5288824490004AA
:1080F00040F0010001F0E2F8DFF89490DFF894A07E
:1081000000264FF0010808FA06F33B4209D059F85F
:10811000262032B128880004514640F0010001F0C9
:10812000D1F801361A2EEED1390608D52888104B21
:1081300014495A6B000440F0010001F0C3F83A04FE
:1081400008D528880A4B10499A6B000440F00100BA
:1081500001F0B8F80D4B1B68DB0700D500BE2046C8
:10816000FFF78CFA02B0BDE8F08700BFECA2002058
:1081700000ED00E0975E0300AC5E0300E15E0300EB
:10818000095F0300585F0300785F0300F0ED00E033
:10819000945F03004D5F030050E8002F0B4640E85A
:1081A000003C9CF0000FF7D11046704750E8003FAC
:1081B00043EA010240E8002C9CF0000FF6D1104683
:1081C000704750E8002F02EA010340E8003C9CF0B1
:1081D000000FF6D11046704750E8003F03EB010254
:1081E00040E8002C9CF0000FF6D11046704750E894
:1081F000003FA3EB010240E8002C9CF0000FF6D1F9
:10820000104670470121FFF7D1BF0021FFF7D9BF0A
:1082100010B50446002834D003681BB91A49FF2062
:1082200004F03AFE636823B917494FF4807004F0F4
:1082300033FEA36823B9144940F2011004F02CFE68
:10824000E36823B910494FF4817004F025FEA38A36
:1082500023B90D4940F2031004F01EFED4E90123B6
:1082600021689B1ADBB20A60013BDBB2FF2B22685C
:1082700002D10020107110BD1168481C10600B70F5
:10828000F2E70E20F7E700BFBC64030037B50546F0
:1082900020B913494FF4927004F0FEFD02A80024A7
:1082A00000F8014DFFF780FE2A686B68116899425B
:1082B0000ED9481E106011F8014CEB68A98A01FB29
:1082C0000434AB6811791B1ADBB2994238BF1371C1
:1082D0009DF80700FFF798FE204603B030BD00BFB1
:1082E000BC64030037B50C46054620B9104940F27E
:1082F000471004F0D1FD24B90D494FF4A47004F0E7
:10830000CBFD02A8002300F8013DFFF74DFE2A68CF
:108310001368591C1160EA68A41AAA8AB4FBF2F423
:108320001C709DF80700FFF76FFE03B030BD00BF63
:10833000BC64030038B5084C04F108030546002866
:1083400018BF1C4623682BB11A6822605B68284658
:108350009847F7E738BD00BFF4AE002020B9054BC1
:1083600001225A70FFF7E6BF012802D1014A90703E
:10837000F8E77047ECAE002020B9034B01225A7099
:10838000FFF7D8BF704700BFECAE002038B50B4CEC
:10839000237883B90A486360A3602361E36001F036
:1083A000C9FC054604F09AFC08B901F0D9FC012388
:1083B0002370284638BD8525FBE700BFECAE0020C2
:1083C0005D83020013B5154C237823B914494FF48B
:1083D000847004F061FDE36823B9114940F209108B
:1083E00004F05AFD02A8002300F8013DFFF7DCFD70
:1083F000E368013BE360E36853B904F06FFC18B134
:108400000749792004F048FD01F0CAFC0023A3705D
:108410009DF80700FFF7F8FD02B010BDECAE00209C
:108420000B650300012813B509D003D303281BD023
:1084300002B010BD134B0122C3F88020F8E702A858
:108440000023114C00F8013DFFF7AEFD23780BB976
:10845000FFF79CFFE3689DF807000133E360012309
:10846000A370FFF7D1FDE3E7074B1B7823B907495A
:1084700040F2432004F010FD01F072FCFFF7A2FF70
:10848000D6E700BF00E100E0ECAE00200B65030082
:108490007FB503788DF804304368029383688DF8C4
:1084A0000C30C368049303698DF81430054A064BF9
:1084B00001A853F8213052F82110984707B05DF811
:1084C00004FB00BF00AF00200CAF0020F0B5064653
:1084D000944616F8047B194A42F827C0184A42F815
:1084E0002730184B0C460FCB85B06D4685E80F0042
:1084F00023788DF8003063788DF80130A3788DF8FB
:108500000230E3788DF8033023798DF805306379F4
:108510008DF80630A3680293237B8DF80C30BCF1F4
:10852000000F637B8DF80D30074A3B4608BF0022E1
:108530002946304602F000F805B0F0BD0CAF00202F
:1085400000AF002060650300918402001FB503782E
:108550008DF8003003798DF8043043798DF80530BB
:1085600083688DF80630C3688DF80730036902937D
:1085700043690393054A064B684653F8213052F885
:108580002110984705B05DF804FB00BF18AF00202C
:1085900020AF0020024940F2C71004F07DBC00BFAC
:1085A000766503001F2810B5044601D9FFF7F2FFD6
:1085B000012303FA04F44FF0A043C3F8084510BDAB
:1085C000024B4FF4807043F00103184770650300BD
:1085D0002DE9F14F924690F80080354A42F828A0E4
:1085E000344A42F828304B7B81460C4673B3086806
:1085F0004FF0A04500F5E07340F20C6245F82320EF
:108600004B6803F5E073002645F82320FFF7CAFF07
:108610006068FFF7C7FF236803F5E07340F20D625F
:1086200045F82320636803F5E0734FF0010B45F82C
:108630002320FFF7C5FF67681F2F01D9FFF7AAFFA7
:10864000D5F81035FB40DB070ED506BBBAF1000F9D
:10865000194A434608BF0022214609F1040001B02F
:10866000BDE8F04F02F068BB27681F2F01D9FFF764
:1086700091FF0BFA07F7C5F80C75FFF7A1FF01365C
:108680002068FFF78FFFFFF79BFF092ED3D16568A6
:108690001F2D01D9FFF77EFF4FF0A0420123AB4011
:1086A000C2F80C35FFF78CFF6068FFF77BFFCDE762
:1086B00020AF002018AF00204D8502001FB50378C1
:1086C0008DF8003043680193037A8DF80830C36851
:1086D0000393054A054B684653F8213052F82110A0
:1086E000984705B05DF804FB28AF00202CAF0020B0
:1086F0001FB503788DF800304368019383688DF8C7
:108700000830C3680393054A054B684653F8213087
:1087100052F82110984705B05DF804FB28AF0020FF
:108720002CAF0020F0B5194B067891F81DE043F806
:108730002620174B94460A6943F82620154B03F868
:1087400006E00C4607460FCC89B06D460FC594E88D
:108750000F0085E80F000496BEF1000F0AD0BCF1AF
:10876000000F0D4A694608BF0022381D03F054F976
:1087700009B0F0BDBCF1000F084A694608BF0022ED
:1087800007F10C0002F0A4FEF2E700BF2CAF0020BE
:1087900028AF0020D0B70020BD860200F18602007D
:1087A00010B5044618B90649312004F075FBA268DB
:1087B0002AB163692168206998470023A36010BD2E
:1087C000B86503000EB433B5059D044618B91249C7
:1087D000422004F061FB63691BB90F49432004F098
:1087E0005BFB23681BB90C49442004F055FB63680C
:1087F0001BB90949452004F04FFB3DB102AA06AB65
:1088000042F8043D2946204600F06EF802B0BDE86B
:10881000304003B0704700BFB8650300826830B4D1
:108820000468551C8560A154D0E901329A4202D3F4
:1088300030BCFFF7B5BF30BC704700002DE9F84FE2
:108840009946DDE90A431746824688460A460126CC
:10885000BA420FD24E4538BF4E4613F0010B01D13C
:1088600064B900240125B9F1010F1AD909F1FF39C2
:108870007D43F8E7B2FBF7F20136E9E79B070ED537
:10888000B9F1000F0CBF30252025A642EAD2013CE9
:1088900029465046FFF7C2FF002CF6D1E1E720251C
:1088A000F3E7B8FBF5F39F42E2D9DFF83890B8FB65
:1088B000F5F3504619F8031005FB1388FFF7AEFFD8
:1088C000B5FBF7F5002DF2D1BBF1000F02D00CB1D2
:1088D000A64201D3BDE8F88F20215046013CFFF7A6
:1088E0009DFFF4E7FD6503002DE9F74F0E46904626
:1088F000054620B9AC494FF49F7004F0CDFA6B697E
:1089000023B9A9494FF4A07004F0C6FA2B6823B923
:10891000A54940F2411004F0BFFA6B6823B9A2499F
:108920004FF4A17004F0B8FA002E00F0398116F867
:10893000011B002958D0252940F0D180002702E0F2
:1089400047F001071646324612F8013B2D2BF7D0AF
:10895000302B04D02B2B05D147F00407F2E747F06A
:108960000207EFE700242A2B06F101021BD1D8F8F9
:108970000030191D1B68C8F800101C4416463378D7
:108980002E2B1CD101364FF0000A314611F8012B75
:10899000A2F13000092814D80A2303FB0A23A3F10B
:1089A000300A0E46F1E712F8013CA3F13001092923
:1089B000E5D80A2101FB0434303C1646D3E74FF0DA
:1089C000000A324612F8011B01F0FB006828164627
:1089D000F8D0692916D054D8582970D00ED8252936
:1089E0007DD03378002BA2D12B7B002B00F0D880D8
:1089F000284603B0BDE8F04FFFF7D2BE632968D028
:108A00006429EED1D8F80020D2F80090111D89EA2F
:108A1000E972C8F80010A2EBE9724FF0010B092AC5
:108A200061DCD34538BFD3462CB1B9F1000F01DB6F
:108A3000790700D5013CBA0702D5BAF1000F04D07E
:108A4000FB0702D4002C54D10024B9F1000F58DAEE
:108A5000C9F100092D212846FFF7E0FE07F00302C7
:108A6000022A05D1BAF1000F02D1002C4DD1002409
:108A7000CDE9004753460A2249462846FFF7DEFE65
:108A8000AFE7732954D016D87029AAD1D8F800308E
:108A90001A1DC8F80020302128461C68FFF7BEFECA
:108AA00078212846FFF7BAFE00220823CDE90032DC
:108AB00021461022E1E775292FD0782991D1D8F8E5
:108AC00000100A1DC8F80020CDE9004753461022C7
:108AD0002CE0D8F800301A1D1978C8F80020284674
:108AE000FFF79CFE7DE70A230BF1010B92FBF3F2EB
:108AF00095E7A345A9D220212846013CFFF78EFE29
:108B0000A0E77807AAD52B21A5E7A345B0D230214D
:108B10002846013CFFF782FEA7E7D8F80010CDE910
:108B200000470A1DC8F8002053460A220968A4E736
:108B3000D8F800301A1DC8F80020F907D3F80090C3
:108B400012D54F46A7EB090B17F8011B41B95C453D
:108B50007FF647AF20212846013CFFF75FFEF6E78E
:108B60002846FFF75BFEEDE7B9F1000F16D0484647
:108B700005F066F90746BC420AD809F1FF3919F831
:108B8000011F00293FF42DAF2846FFF747FEF6E707
:108B900020212846013CFFF741FEECE74F46EAE77B
:108BA00003B0BDE8F08F00BF0D6603002DE9F04172
:108BB00008B10368C3B90E4E0E4B14229B1B002450
:108BC000B3FBF2F3374602FB03F5A54201D10020C7
:108BD00008E03B5930190BB91434F6E7DB699847C4
:108BE0000028F9D0BDE8F081DB69BDE8F041184705
:108BF00008A3002008A300207047000007B5044B1D
:108C00000093044A402300F032F803B05DF804FBFF
:108C1000198C020031AF00202DE9F8438946144633
:108C2000B2B10F4B0F4E0325002743F00108224637
:108C300009EB07010020FEF7F3FD0744241A48B9A9
:108C400033782BB14FF47A40C047013D02D13570E3
:108C5000BDE8F88301233370002CE8D1F8E700BFAA
:108C60007066030030AF00207047FEF72BBEF0B5F2
:108C700095B01C46164608460D4600F026FD1A9B88
:108C80000D93CDE9086400242346082205A928464F
:108C90000A948DF82C400C9400F031FD079B029350
:108CA000BDF81830ADF80C30BDF81A30ADF80E3004
:108CB0009DF814308DF8114003F00302012A1DD1F4
:108CC000BDF81440059EC3F3C203C4F383148DF8AA
:108CD0001030A20008230EA9284600F010FDC6F3AC
:108CE000952608AB0093224602AB0EA9304600F051
:108CF000A7FB284600F0EDFC15B0F0BD022AF8D124
:108D0000BDF81640C3F3C203A4098DF8103008273C
:108D1000082C264628BF08263B4632460EA9284680
:108D200000F0EDFCA41B08AB02AA31460EA83744A4
:108D300000F0EAFB002CEBD1DBE7000008B5FFF701
:108D400094FF0421064800F0EBFA002803DA0549F5
:108D5000412004F0A1F8024B01225A7208BD00BF65
:108D6000D09800208466030008B5037813F0030F41
:108D700003F0040202D012B9104608BDDAB103F0C4
:108D80000303012B07D0022B0ED00E494FF4A47021
:108D900004F082F806E00A6800880232C0F383100B
:108DA00002440A600120E8E70B684288023303EBC3
:108DB00092130B60F6E70B684288013303EB9213C2
:108DC0000288F4E7EF6603002DE9F04F89B006460C
:108DD000871C08A8484C009200230D4600F8113D5E
:108DE000FFF7E2F823682B60D4E9012313442268DB
:108DF00001339B1A04F21C4804F5836B04F21449F6
:108E0000BB421AD3009A0023002A6DD0012262F3DC
:108E1000010343F0040366F389132168A2689DF8F7
:108E20000F000A4003320F4444F822302760FFF756
:108E3000EBF8012009B0BDE8F08F01214046FFF7B3
:108E4000CBF95846FFF7DEF90DF1200A4846FFF747
:108E5000D9F960684AF8100DA5682840033004EB82
:108E600080005146FFF780FF02460498002AF4D1A3
:108E700005EA000304EB8303811CDB6805930130E2
:108E8000054004EB850503F00303012B0491ED6815
:108E900023D0022B08D0194901924FF4C27003F07D
:108EA000FBFF019A154607E0BDF816309B09033316
:108EB0002D0C01EB930304934846FFF7A6F908B184
:108EC000049B636029464046FFF786F9D4E90123F5
:108ED0001344226801339B1A92E7BDF81430C3F3A0
:108EE00083132D0C0B44E6E7022262F3010343F0E7
:108EF000040366F39F5390E744B00020EF6603003D
:108F000008B50F4B0F48FF229A600022C3F81824BF
:108F1000C3E90022C3F81424012283F8202400F0BE
:108F20008DFB38B9084A094B09499B1ADB080246F0
:108F30009A4200D108BD21F822200132F8E700BF93
:108F400044B000205C780300C47703005C78030021
:108F5000BCA2002030B50B4C79B10B4A0B49121B57
:108F6000D20800239A4201D1002030BD01EB8305D5
:108F70006D88854202D00133F4E7034654F833008C
:108F8000F3E700BFC47703005C780300BCA20020B5
:108F9000094B013903EBC000032909D8DFE801F0D0
:108FA0000A02040604207047007970474079704730
:108FB0000020704702207047C4770300034BD3E9B9
:108FC0000030C31A58425841704700BF44B00020D7
:108FD0002DE9F04387B0FFF7F1FF0746002840F086
:108FE000F5807B4DC5F81804BFF34F8F6868AC68F7
:108FF0000DF1180848F8100D2040033005EB8000F3
:109000004146FFF7B1FE029B064600285FD104EA05
:109010000302991C013305EB8202234005EB830315
:10902000D268DB68049302F00303022B03920291DF
:1090300062D1BDF80E3067484FEA9318B8F1500F6F
:10904000C14628BF4FF0500969F38F1309F1080199
:10905000ADF80E3000F00AFB0746002800F0A480AF
:1090600000F033FB334603A90822384600F040FBEA
:10907000029924EA01060136B600B14535D95FFAF6
:1090800089F97EB3F6B2A9EB0609214003315FFAF4
:1090900089F4B146504E05EB810108234A46384613
:1090A00000F026FB36B109F1080322463146384666
:1090B00000F01EFB029B08F1030803EB98030293E8
:1090C000D5F81834002B4AD1D5F8104458E02A6856
:1090D0009A4204D86A60384607B0BDE8F08304EAD3
:1090E00003008AE73C493446D7E72140033108238F
:1090F0004A4605EB8101DAE7012B55D1BDF80C306A
:109100003448C3F38311062928BF062161F389136C
:1091100002318900ADF80C3000F0A8FA07460028AB
:1091200042D000F0D2FA3346082203A9384600F0B4
:10913000DFFABDF80C20C2F38312B31C96424FEA4B
:109140008303BDD202994A1C21400331029205EBF0
:1091500081010422384600F0CBFA0136E9E73846AF
:1091600000F0B7FAFFF72AFF80F00100C7B2B2E7BC
:10917000637A23B1236839461B68204698476468A0
:10918000002CF5D1384600F0A4FA06A800F8114DDD
:10919000FEF70AFFD5F818340BB9029B6B609DF8F7
:1091A0000700FEF731FFDDE7D5F8104444B90B4B5B
:1091B0000B491888000440F0020000F07FF8D1E766
:1091C000236820469B6898476468EFE7002782E79A
:1091D00044B000205C78030050B00020E0A20020E2
:1091E000526703002DE9F74F2F4C80460F469146FA
:1091F00001A9012218469B46D4F808A0FFF7E4FD18
:1092000000283DD0019D0026A91C5E4506EB010209
:1092100040D100212548FEF7BFFF80F3100B244BFF
:10922000244A4FEA18499B1AB9EBD30F04D32249B9
:1092300040F2A91003F030FE6B1C03EA0A0304EBB2
:10924000830349EA0B42DA6005EA0A03033301218A
:1092500014F8232068F3C50204F8232034F82320EF
:1092600066F3891224F8232054F8232067F39F2201
:1092700044F8232061F301026FF3820204F82320F3
:1092800094F820341BB1FFF7A3FE0028FBD103B0F4
:10929000BDE8F08F0AEA020204EB820259F8263098
:1092A000D3600136B1E700BF44B0002060B40020B5
:1092B0005C780300C4770300EF66030000231A46BE
:1092C000FFF790BF13B502AC012344F8042D2246EA
:1092D000FFF788FF02B010BD07B5CDE900230223D8
:1092E0006A46FFF77FFF03B05DF804FB1FB5CDE9C9
:1092F0000123069B039301AA0323FFF773FF05B025
:109300005DF804FB1FB5CDE90023069B0293079B84
:1093100003936A460423FFF765FF05B05DF804FB7D
:109320000F4A30B5D2F810440023214641B90372E8
:10933000D2F810444CB9C2F810044160184630BD50
:109340000D7A9D4205D04968F0E76268426060602E
:10935000F4E701330A2BE8D14FF0FF33EEE700BF0B
:1093600044B00020084A38B50123D2F8104482F8EE
:1093700020341D4604B938BD2368657220465B68F9
:1093800098476468F6E700BF44B00020037A052BD5
:1093900010B50C460FD0437A23B1084A084920463D
:1093A000FFF710FA07492046FFF70CFA2046BDE800
:1093B0001040FFF7F5B9002AF8D0F3E7AF670300D4
:1093C000B4670300D4670300C38873B504460D4631
:1093D00033B1144A00921449144A2846FFF7F2F9AF
:1093E000217A05291CD0637A4BB1A088FFF7D0FD04
:1093F0000F4B104953F820202846FFF7E3F9227A53
:109400000D4BA08853F822600021FFF7A3FD0B4904
:1094100003463246284602B0BDE87040FFF7D2B995
:1094200002B070BDAF670300BF670300B7670300FA
:109430007C670300B4670300E4670300D767030099
:109440002DE9F04385B01F460C9D002306460C46CF
:10945000904695F80C902B7329463846FFF7B4FFD9
:10946000B8F1060F09D8DFE808F00412181F2833F6
:10947000400031462846FFF7A5F900222946384624
:10948000FFF784FF85F80C9005B0BDE8F0832268F3
:1094900031462846FFF796F9EFE7D4E90023314635
:1094A0002846FFF78FF9E8E7A36800933146D4E92F
:1094B00000232846FFF786F9DFE7E3680193A368F6
:1094C00000933146D4E900232846FFF77BF9D4E71F
:1094D00023690293E3680193A36800933146D4E9BA
:1094E00000232846FFF76EF9C7E7636903932369F2
:1094F0000293E3680193A36800933146D4E9002303
:109500002846FFF75FF9B8E708292DE9F84F8046AC
:109510000E4617461C4638D8002593F80C901D734C
:1095200019461046FFF750FFDFF880A0DFF880B043
:10953000AE422CD918F8052059462046FFF742F9CB
:109540000135082DF4D11749DFF868B02046FFF740
:1095500039F90025AE421FD918F805A004F036F9F4
:1095600050445946437813F0970F14BF52462E22A9
:109570002046FFF727F90135082DEBD101222146BE
:109580003846FFF703FF84F80C90BDE8F88F51468A
:109590002046FFF717F9D3E703492046FFF712F9F2
:1095A000E9E700BFAA670300A8670300A6670300F6
:1095B000A0670300AC6703002DE9F84FB0F806A0E0
:1095C0009DF82890174603321C1D13444279B4FBC2
:1095D000FAF55344B3FBFAF3DBB29A4206468846E7
:1095E0000AFB154403D21449BA2003F055FC3DB9D7
:1095F000AAEB040BBB4528BFBB4627B9BDE8F88FD3
:109600003668013DF3E7043408EB050034445A465C
:10961000B9F1000F0DD02146A7EB0B0704F02CF990
:10962000BA455D443668D3464FF0000428BFBB46B8
:10963000E3E701462046EFE743680300FEF7E8BD95
:10964000F8B546790146721E0546002393422D68FF
:1096500003D30024A64202D8F8BD0133F6E70F6811
:109660002846FEF73FFE01343946F3E72DE9F8437B
:10967000868ACD1C0746FEF709FE043E35440446A3
:10968000B5FBF6F5F0B14FF48073EDB28380C68080
:10969000013D076081464FF00008A84512D23846C8
:1096A000FEF7F4FD064648B163790133637108F1B2
:1096B0000108C9F8000007608146EEE72046FFF781
:1096C000BFFF34462046BDE8F88301210430FEF791
:1096D00083BD10B5012104460430FEF788FD10F06B
:1096E000FF0F04D12046BDE81040FFF7A9BF10BD11
:1096F00013B500240094FFF75FFF02B010BD13B54F
:1097000001240094FFF758FF02B010BD02681368EF
:109710005268934291BFD01A80680130801888BF88
:10972000C01A704738B50C46054618B90449772069
:1097300003F0B2FBAB68A3428CBF601C002038BDB5
:10974000A868030038B5044618B907498A2003F011
:10975000A3FB236820461D685968FFF7E3FF431BFE
:109760005842584138BD00BFA86803002DE9F341B5
:109770000D46044618B92E49952003F08DFB1DB9FE
:109780002B49962003F088FB02A8002300F8013D36
:10979000FEF70AFC2046FFF7D5FF804610B1237C78
:1097A000002B3BD1276820467E687968FFF7BAFF17
:1097B0007860B8F1000F05D0276820463968FFF7B8
:1097C000B1FF3860E2686068531E072B20D8DFE8DD
:1097D00003F004101F141F1F1F182B7883552046F9
:1097E000FFF794FF23689A68824200D298600024B1
:1097F00015E02B8820F81630F1E72B6840F826306A
:10980000EDE7D5E9002300EBC600C0E90023E6E759
:10981000294606FB020004F02FF8E0E704249DF837
:109820000700FEF7F1FB204602B0BDE8F08100BF63
:10983000A868030010B5044620B9064940F20A2082
:1098400003F02AFB236818685B68C31A5842584122
:1098500010BD00BFA86803002DE9F3410C469046F7
:10986000054618B92549D92003F016FB1CB9234930
:10987000DA2003F011FB02A8002300F8013DFEF7F7
:1098800093FB2846FFF7D6FF002834D12F683E68A7
:10989000B8F1000F04D139682846FFF743FF38605C
:1098A000EA686968531E072B1FD8DFE803F0040F2E
:1098B0001E131E1E1E178B5D237000249DF80700CB
:1098C000FEF7A2FB204602B0BDE8F08131F8163069
:1098D0002380F2E751F826302360EEE701EBC60162
:1098E000D1E90023C4E90023E7E706FB0211204683
:1098F00003F0C2FFE1E70524E0E700BFA86803002A
:1099000038B50D46044618B90949502003F0C4FA89
:109910001DB90749512003F0BFFA2B686A686360DC
:10992000934208BF0023256008BF636038BD00BFB5
:10993000F568030010B5044618B90B49632003F01D
:10994000ABFA23681BB90849642003F0A5FA6368E1
:1099500043B12268916852680B449342636004BF2C
:109960000023636010BD00BFF56803000D4930B5EA
:10997000A1F594720225914201D800200EE08B1AC5
:10998000DB1093FBF5F302EBC30452F83330834250
:1099900005D802D204F10802EDE7606830BD214627
:1099A000E9E700BF986A030008B5FFF7DFFF024B45
:1099B000002808BF184608BD5D690300C0B2002337
:1099C00048700B707047000070B50D46044618B91A
:1099D0000849712003F060FA23681A6812683AB1E6
:1099E0001A681B6851681B682846BDE87040184714
:1099F00070BD00BF526E0300F0B5044687B018B9C1
:109A00002D49372003F048FA2368187E1A68C0B23F
:109A100007B296684FEAC70C06EB0C0256F837609F
:109A200051791779927912F0010F4FEA510501F03F
:109A3000010139D0002937D1D3F800E09EF80CE0BD
:109A40000130704530DAD3F800E00CF10800DEF8A0
:109A500008C084449CF805C0B5EB5C0F24D11A689B
:109A600091680A1851F800C0187E517992F804E004
:109A70009279013011F0010F4FEA4212C0B20CBFCF
:109A80000321022102F0200218768DF8041004F15F
:109A90000C0001A98DF80550CDE9027ECDE9046CDA
:109AA00001F0A4FA07B0F0BD52014FF0000C02F033
:109AB0002002E646E9E700BF526E03002DE9F74FAA
:109AC0000E46044618B92949872003F0E5F92568B0
:109AD000DFF89CB04FF0000802A800F8018DFEF7F7
:109AE00063FA16B923681B6843B9002229466068E7
:109AF000FFF7B2FE90B3C5F8008000269DF807007E
:109B0000FEF782FA7EB32B681B694BBB2F1D102218
:109B10003946686903F07EFEA8B104F10C0A50468C
:109B200004F1080901F006FA23465A463946484628
:109B3000FEF74EFD18B10D49B42003F0ADF95046C3
:109B400001F0B0F96F6185F818802046FFF754FFE7
:109B5000014640B12046FFF737FFBDE70126CDE7BC
:109B60002B681F69D3E703B0BDE8F08F526E030086
:109B7000759B020038B50C46054618B91249D2202B
:109B800003F08AF923681B681BB90F49D82003F03A
:109B900083F9297871B92268137E10680133007B3C
:109BA000DBB2984207D913762046FFF725FF01461E
:109BB00008B938BD03212046FFF706FF20460121E2
:109BC000BDE83840FFF77ABF526E0300F8B50D4686
:109BD000044620B918494FF4847003F05DF96368B6
:109BE00023B9154940F2091003F056F963689B68E0
:109BF00023B911494FF4857003F04EF925B90E4988
:109C000040F20B1003F048F923460C4A294604F1B0
:109C10000800FEF7DDFC064660B904F10C0001F017
:109C200041F9276895E80F003C4644F8046B84E846
:109C30000F007C613046F8BD526E0300759B020038
:109C400037B50546019120B9144940F22D1003F0B3
:109C500023F9019B23B911494FF4977003F01CF9C4
:109C6000019B9B6823B90D4940F22F1003F014F9B2
:109C7000019B1B7B23B909494FF4987003F00CF941
:109C800001A96868FFF772FD044618B90146284625
:109C9000FFF714FF204603B030BD00BF526E030033
:109CA0002DE9F04186B0884617461E460C9C0546B5
:109CB00020B9194940F24F1003F0EEF827B91649C0
:109CC0004FF4A87003F0E8F826B9134940F2511098
:109CD00003F0E2F80023ADF8003001238DF80030E6
:109CE00001A90E4B01932846CDF808D003978DF8B3
:109CF0001060CDF81480FFF7A3FF20B106B0BDE8D7
:109D0000F08104B1A0479DF80030002BF9D19DF8F7
:109D10000100C0B2F2E700BF526E0300BD9902001D
:109D200000F18040002382B0036003680193019B2F
:109D300002B0704710B5044618B90749A22003F0D5
:109D4000ABF8064B187920B901221C601A715871C2
:109D500010BD8520FCE700BFA56E030068B400209D
:109D600008B50C4B1B791BB90B49BB2003F094F8C9
:109D70000A4B1A68D20706D4E02283F80023012296
:109D8000C3F880211A604FF080430122C3F81825E0
:109D900008BD00BF68B40020A56E030000E100E02C
:109DA00008B5084B1B791BB90749F22003F074F87A
:109DB000064B01221A604FF08042D2F81834DB03C0
:109DC000FBD408BD68B40020A56E03000C00004061
:109DD000124B1B6810B573B14FF48070FFF7A0FFF2
:109DE0004FF080430122C3F808230D4B587910B976
:109DF0005A711B6898470B4B1B6873B14FF4827004
:109E0000FFF78EFF4FF080430222C3F80823044B74
:109E100001201B68BDE81040184710BD000100403C
:109E200068B400200401004000F1804000F5C0400B
:109E3000002382B0036003680193019B02B0704766
:109E4000054B4FF0FF32072843F8202084BF1B1832
:109E500083F84820704700BF70B40020024940F2E8
:109E6000C71003F019B800BF766503001F2838B586
:109E700004460D4601D9FFF7F1FFA00000F1A04014
:109E8000D0F8003723F44033C0F80037D0F800375B
:109E900043EA0543C0F8003738BD0000164991F881
:109EA000583010B52BBBFF20CA180133202B82F885
:109EB0003000F9D10024E0B20134FFF7C1FF0C2CCF
:109EC000F9D10E4B0022E0204A6583F806034020BA
:109ED000C3F8800118604FF4BE70FFF7A5FF084B70
:109EE0004FF00040C3F80403012381F858301046B6
:109EF00010BD0820FCE700BF70B4002000E100E0C6
:109F000000600040034B93F85800003018BF012058
:109F1000704700BF70B400201F2870B504460D467E
:109F200004D9414940F22D1002F0B6FF3F4E96F899
:109F30005830012B04D03C494FF4977002F0ACFF2D
:109F400025B9394940F22F1002F0A6FF331993F9D1
:109F50003020013265D1AA78002A54D0002356F867
:109F6000231001314FEA830248D1311902F18042B6
:109F700002F5C04281F830300021D2F8100546F8D1
:109F800023102B78697820F498101B04090520F41D
:109F9000F85001F4801103F44033C2F810050B436C
:109FA0002102D2F8100501F4F8510B430343C2F823
:109FB00010356B78012B4FF0010528D11F2C01D9EA
:109FC000FFF74CFF4FF0A043A540C3F808551F2CE6
:109FD00001D9FFF743FF04F5E0724FF0A0430321DE
:109FE00043F82210E2081249012304F0070403FA9F
:109FF00004F48B5C1C438C54002003E00133082BD9
:10A00000ADD1042070BDFE2283F83020D1E71F2C93
:10A0100001D9FFF723FF4FF0A043A540C3F80C552B
:10A02000D5E70820EEE700BFF76E030070B400200C
:10A03000C4B400201F2838B5054604D9124940F29F
:10A04000791002F029FF114C621992F93020013287
:10A0500004D10D494FF4BD7002F01EFF631993F84F
:10A060003030072B04D8084940F27B1002F014FF6F
:10A070001F2D01D9FFF7F2FE012303FA05F54FF07A
:10A08000A043C3F8085538BDF76E030070B4002034
:10A090001F2838B5054604D9124940F2831002F052
:10A0A000FBFE114C621992F93020013204D10D49A6
:10A0B0004FF4C27002F0F0FE631993F83030072BB2
:10A0C00004D8084940F2851002F0E6FE1F2D01D9A0
:10A0D000FFF7C4FE012303FA05F54FF0A043C3F8D0
:10A0E0000C5538BDF76E030070B400202DE9F04F19
:10A0F00087B000245B4A5C4E5C4D039401211368D9
:10A10000A2F5C040012B80B206D1D6F804330B4231
:10A1100002D0FFF789FE0C430432AA424FEA410104
:10A12000EDD1534B1B68012B0AD14FF4BE70FFF7E2
:10A130007BFE4FF0A04344F00044D3F81035039366
:10A1400014F0FF0F1AD04B4F00250126344210D0D7
:10A15000AB0003F1804303F5C043D3F81005D3F8F7
:10A16000101557F82530C0F30420C1F3014103B1A5
:10A1700098470135082D4FEA4606E7D1002C6EDAE4
:10A1800000224FF0FF33CDE904233A4F4FF0000A8D
:10A1900056464FF0A04907EB0A0393F95040631C61
:10A1A00046D0E4B2012224F0C00504F0070B02FA05
:10A1B0000BFBEB0806AAD11811F8042C12EA0B0FBE
:10A1C00036D07A19A40992F9302057F82280B8F1D4
:10A1D000000F0AD1032C2BD10DF1100C1CF8030039
:10A1E00040EA0B000CF8030001E0032CF4D01F2D13
:10A1F00003D90191FFF732FE019911F80C1C05F506
:10A20000E07311EA0B0F59F82330C3F3014320D058
:10A21000022B0DD1032C05D121462846FFF726FE3F
:10A220000136F6B2B8F1000F02D021462846C047E9
:10A230000AF1010ABAF1040FADD186B14FF0A04383
:10A24000039AD3F810359A4209D00393049B0593DF
:10A250009CE7032BECD1032CE4D10221DDE707B00E
:10A26000BDE8F08F006100400060004020610040C8
:10A270007C61004070B4002010B5054C22681AB90A
:10A280000449512002F008FE2368BDE81040184739
:10A29000CCB400204B6F030037B50D4630B90F49E1
:10A2A000772002F0F9FD002003B030BD0C4B98423E
:10A2B000F9D102A8002300F8013DFDF775FE094B16
:10A2C0001C7914B901221D601A719DF80700FDF771
:10A2D0009BFE002CE7D01120E6E700BF4B6F030088
:10A2E00000200040CCB4002018B906499B2002F0A1
:10A2F000D3BD054B984201BF044B00221A601A716E
:10A30000704700BF4B6F030000200040CCB400201A
:10A3100000F1804000F5E040002382B00360036854
:10A320000193019B02B07047F0B5514B514C1B6833
:10A3300085B0DBB14FF4827094F82E20FFF7E8FF70
:10A3400012B194F82F30A3B1636802932389ADF85A
:10A350000C30E36800218DF80410002B44D12374E5
:10A36000236801A89847002384F82F3094F82E30F2
:10A3700003B3414B1B68EBB14FF48070FFF7C8FF8C
:10A3800094F82D20638B91B28B4238D95B1A2189C6
:10A390009BB26383CB1A616801EB4301374BC3F86F
:10A3A0002C16C3F830264FF48270FFF7B1FF344B00
:10A3B00001221A60334B1B685BB14FF48870FFF7C2
:10A3C000A7FF002304A82374022300F80C3D236890
:10A3D00098472D4B1B6813B34FF48A70FFF798FF13
:10A3E0000023237405B0F0BD208B6083636020815F
:10A3F000E160002AB4D1214B01221A60B0E7D2D12A
:10A40000E368012184F82F103BB1002161831B49CF
:10A41000C1F82C36C1F83026C5E76383C3E7666907
:10A420004FF000470125002EDCD0B6FA86F227FA5D
:10A4300002F34632920026EA030602F1804303F556
:10A44000E0431B68002BEED01046FFF761FFA2F53A
:10A450008C72D30882F00402C2F380028DF80830B7
:10A460008DF804508DF80920236801A89847DAE791
:10A4700004710040D4B4002000710040007000401E
:10A48000047000401071004014710040024940F215
:10A49000C71002F001BD00BF766503001F2810B58C
:10A4A000044601D9FFF7F2FF012303FA04F44FF049
:10A4B000A043C3F80C4510BD1F2810B5044601D9B0
:10A4C000FFF7E4FF012303FA04F44FF0A043C3F8BD
:10A4D000084510BD4FF0402313B5D3F818310BB326
:10A4E000114B124C00221A601B680193019B2368D8
:10A4F00023B90F4940F28E2002F0CEFCE07FFF2806
:10A5000003D0A37F5BB1FFF7C9FF002363772372FA
:10A51000D4E90031074802B0BDE810401847FFF702
:10A52000CBFFF2E702B010BD1841004004B5002097
:10A53000A36F03000CB500202DE9F74F8146CDE94C
:10A5400000230C4619B98349A92002F0A5FC99F80B
:10A550000460814D242303FB06FB05EB0B0A9AF8EC
:10A560001C10002940F0F180D9F800807B4940465A
:10A57000FFF792FE0746002840F0E980009B45F86F
:10A580000B30019BCAF80430237B2078012B00F2AA
:10A59000CA80FFF783FF94F800A0BAF11F0F01D91A
:10A5A000FFF774FF0AF5E07A4FF0A043012243F869
:10A5B0002A2094F801A0BAF1FF0F00F0B7805046AE
:10A5C000FFF76CFFBAF11F0FD34601D9FFF75EFF0B
:10A5D0000AF5E07A4FF0A043032243F82A20A3783B
:10A5E000FF2B00F0A6801F2B9A4603D90093FFF79C
:10A5F0004DFF009B03F5E0734FF0A042042142F8A9
:10A60000231099F80430242202FB0353A27883F824
:10A610002020E078FF281CD02379002B00F08C80CC
:10A62000FFF73CFFE3781F2B03D90093FFF72EFFC2
:10A63000009B03F5E0734FF0A042032142F8231082
:10A6400099F80430242202FB0353E278DA77227966
:10A650009A772378C8F80835A368C8F80CB5C8F805
:10A6600010A5C8F82435637B227B003318BF012373
:10A67000022A64D0032A65D0012A01D143F00203E3
:10A68000C8F85435A379C8F8C03524237343EB5870
:10A6900013B14022C8F804230722C8F80025BBB331
:10A6A000D9F8003064794FEA133AA31E012B4FFA10
:10A6B0008AF806D9631F022B03D929496B2002F0BF
:10A6C000EBFBB8F1000FACBF08F16043254B4FEA3C
:10A6D0004414B8BF0AF00F0AE4B2AABF03F56143FD
:10A6E00003F80A4083F80043D9F800301B0B03F04D
:10A6F0001F0143F3C40323F0604323F0030303F17A
:10A70000604303F5614301228A40C3F880211A6047
:10A71000242303FB065500236B7701232B77384650
:10A7200003B0BDE8F08FFFF7C7FE34E74FF0FF3B03
:10A7300055E74FF0FF3A64E7FFF7BEFE72E743F0DC
:10A7400004039DE743F006039AE70827E7E711278C
:10A75000E5E700BFA36F030004B50020D5A4020005
:10A76000EE6F030014ED00E02DE9F341574F067939
:10A77000242303FB067380461B7F0D46144623B932
:10A7800053494FF4097002F087FB2B6833B96B68AB
:10A7900023B14F4940F2252002F07EFBAB6833B96C
:10A7A000EB6823B14A4940F2262002F075FB98F885
:10A7B00004302BB9EB68FF2B02D86B68FF2B04D950
:10A7C000434940F2292002F067FB24237343FA181F
:10A7D000517F002978D1FB5823B114F0140F04BF26
:10A7E0000123537795E80F004FF0240C0CFB067CF7
:10A7F0000CF10C0E8EE80F009CF81F00FF2804D00F
:10A800009CF81E30C3B1FFF757FE296821B101F053
:10A810006043B3F1005F06D1AA6882B102F06043E1
:10A82000B3F1005F0BD0242303FB0676002373777C
:10A83000102002B0BDE8F081FFF730FEE5E7D8F860
:10A8400000306868C3F84415C3F84805E968C3F8E0
:10A8500034250022C3F83815C3F81821D3F818217D
:10A860000192019A14F0010218BF0122C3F8502589
:10A8700014F0020218BF0122C3F8402522075CBF72
:10A8800001221A6124227243BA5892B9D3F81821CE
:10A89000002AFBD0242303FB0676F07FFF2803D099
:10A8A000B47F1CB1FFF7FAFD0020C2E7FFF704FEFA
:10A8B000FAE714F004004FF0400202D0C3F8082376
:10A8C000F2E7C3F80423B4E71120B2E704B500208F
:10A8D000A36F03002DE9F743002406460F4600F559
:10A8E000A0754FF48038A14604F150002B68800019
:10A8F00080B26BB1D6F8043308FA04F21A4207D0DA
:10A90000C5F800902B680193019BD7E90031984767
:10A910000134042C05F10405E6D103B0BDE8F08351
:10A920002DE9F347574B0679144602689A42804650
:10A930000D4603D15449482002F0AEFA1DB95249E0
:10A940004A2002F0A9FA1CB94F494B2002F0A4FAA0
:10A950004E4F0C2303FB06731B7A002B40F09080B4
:10A96000D8F80030474A93420FD002F58052934204
:10A970000BD002F58052934207D002F58032934209
:10A9800003D002F58052934202D1AB78032B03D956
:10A990003D495F2002F080FA0C237343FA18FC5003
:10A9A0006B68536098F80500D8F8002000231C4617
:10A9B000D9B288425AD8EC78A31E4FEA123A012B3A
:10A9C0004FFA8AF906D9631F022B03D930496B204D
:10A9D00002F062FAB9F1000FAEBF09F160430AF06C
:10A9E0000F032C4A4FEA4414E4B2AABF03F56143B3
:10A9F000D45483F80043D8F80020130B03F01F0051
:10AA000043F3C40323F0604323F0030303F16043E3
:10AA100003F56143012101FA00F0C3F880011860D9
:10AA2000D2F804056B7820F0030003F0030303431E
:10AA3000C2F80435D2F80805AB7820F0030003F023
:10AA400003030343C2F80835D2F810052B7820F031
:10AA50000F0003F00F030343C2F810350C2303FB70
:10AA600006760020317202B0BDE8F08703F1500194
:10AA7000013342F8214052F821100191019997E7E2
:10AA80000820F0E7008000403670030028B5002061
:10AA9000EE6F030014ED00E038B50B4C02790C2189
:10AAA00001FB02420546127A012A03D007498F2092
:10AAB00002F0F2F92B6801221A602B790C2202FBBA
:10AAC000034302221A7238BD28B5002036700300F5
:10AAD00038B50A4C02790C2101FB02420546127A74
:10AAE0001AB90749972002F0D7F92B6801221A6199
:10AAF0002B790C2101FB03431A7238BD28B50020C5
:10AB00003670030038B50A4C02790C2101FB024271
:10AB10000546127A1AB907499F2002F0BDF92B7930
:10AB20000C2202FB0343187A831E5842584138BD59
:10AB300028B500203670030010B5084A03790C21AF
:10AB400001FB032304461B7A1BB90549B32002F01D
:10AB5000A3F923680122DA6010BD00BF28B50020E8
:10AB60003670030038B5104A03790C460C2101FBFE
:10AB7000032305461B7A1BB90C49C22002F08CF94D
:10AB80006B79A34203D80949C32002F085F904F187
:10AB900010039B002A68DBB20121D15004F5A87490
:10ABA00052F8240038BD00BF28B5002036700300DD
:10ABB00001490248FFF78EBE28B500200080004002
:10ABC00001490248FFF786BE34B5002000900040DE
:10ABD0000023435082B043580193019B02B0704759
:10ABE000F0B5504C236887B023B94F4940F22D206F
:10ABF00002F052F94D4AD2F824311546A3B14FF470
:10AC000092711046FFF7E4FFD2F8043163B9A368EC
:10AC1000C2F808330223A360A368C2F804330123F7
:10AC20001362536107B0F0BDD5F80431002B49D051
:10AC30003F4F3E484FF48271FFF7CAFF0FCF01AE7E
:10AC40000FC63B68336094F82E307BB1237B012B19
:10AC50000CBFD5F83C25D5F84C250292022B334B7E
:10AC60000CBFD3F83C35D3F84C3503934FF4B07197
:10AC70002E48FFF7ADFF4FF4AE712C48FFF7A8FF49
:10AC800094F8303013B194F82E303BB1274B0022AA
:10AC9000C3F80022A260274AC3F80823234AD2F847
:10ACA000C434C2F8C4349A0736D501238DF8003075
:10ACB00094F830300BB984F82F30D4E9003168466D
:10ACC0009847AFE74FF4A4711848FFF781FF237B43
:10ACD00083B9174F0FCF01AE0FC63B68336094F8AE
:10ACE0003030002BDAD1C5F80032A360114BC5F823
:10ACF0000833D3E74FF40073C5F8003240F2022363
:10AD0000A36003F1CE73C5F80833A368C5F8043314
:10AD10000123AB602B6285E713F0040318BF022305
:10AD2000C4E700BF40B50020887003000030004039
:10AD30004CB5002002029C012DE9F74F8046934656
:10AD400001930C4619B95149982002F0A5F8D4E9AD
:10AD500000239A4203D14D49992002F09DF898F8BA
:10AD600004604B4D342303FB06FA05EB0A0999F8FE
:10AD70002D20002A40F086804649D8F80000FFF7D1
:10AD80008BFA074600287FD1019BC9F80430637B0A
:10AD9000C9F8080089F8300089F82F0089F83230A6
:10ADA000D4F8009045F80AB0B9F11F0F04D93A4918
:10ADB00040F2C71002F070F84FF0A04309F5E079B7
:10ADC00040F20C6243F82920D4F804A0BAF11F0F16
:10ADD000994604D9304940F2C71002F05DF80AF5EF
:10ADE000E07A40F20C6349F82A30D4E90012D8F82E
:10ADF0000030C3F80815C3F80C25A268C3F8242551
:10AE000034227243AA589AB3247B4FEA133AA31E02
:10AE1000012B4FFA8AF906D9631F022B03D91F4968
:10AE20006B2002F039F8B9F1000FAEBF09F16043B1
:10AE30000AF00F031A4A4FEA4414E4B2AABF03F51A
:10AE40006143D45483F80043D8F800301B0B03F05F
:10AE50001F0143F3C40323F0604323F0030303F112
:10AE6000604303F5614301228A40C3F880211A60E0
:10AE7000342303FB0655012385F82D30384603B0F3
:10AE8000BDE8F08F0827F9E71127F7E7887003007E
:10AE900040B50020E1AB020076650300EE6F0300D1
:10AEA00014ED00E070B50C4D0479342202FB04521D
:10AEB000064692F82D20012A03D00849FA2001F015
:10AEC000EBFF33680622C3F80025342303FB045448
:10AED000022384F82D3070BD40B500208870030037
:10AEE00070B5114D0479342202FB0452064692F8E3
:10AEF0002D2022B90D4940F2051001F0CDFF34227A
:10AF0000336802FB04540021094AA160C3F80823F6
:10AF1000D3F8002222F4BC52C3F80022C3F8001573
:10AF2000012384F82D3070BD40B5002088700300E7
:10AF300002029C01F8B5294D0479342303FB045324
:10AF4000064693F82D301BB92549E12001F0A4FFF6
:10AF500034236343EB5863B133681B0B5AB20121AE
:10AF6000520903F01F0301FA03F320321D4941F88F
:10AF700022303046FFF7B4FF3068FFF7B5F93423CD
:10AF800003FB045393F8323003BB3368D3F80875DE
:10AF90001F2F04D9144940F2C71001F07DFF4FF074
:10AFA000A04307F5E077022243F827203268D2F861
:10AFB0000C751F2F1E4604D90B4940F2C71001F033
:10AFC0006BFF07F5E077022346F82730342303FBB5
:10AFD0000454002384F82D30F8BD00BF40B5002094
:10AFE0008870030000E100E0766503002DE9F84376
:10AFF000037904460D4690462BB94B68FF2B02D8C7
:10B000008B68FF2B04D9B4494FF4EC7001F044FF76
:10B010002779B24E34237B43F3583BB92B78022B6C
:10B0200004D1AD494FF4EF7001F036FF34237B4378
:10B03000F3583BB92B78032B04D1A74940F2DF101A
:10B0400001F02AFFEB6803F06043B3F1005F03D027
:10B0500010221046BDE8F8832468A14BC4F80833D9
:10B060004FF0340C0CFB076C9CF82F302BB1DCF844
:10B070000830C4F804331122EBE718F0140F0CBFAA
:10B08000012300238CF82F30A946B9E80F000CF1FA
:10B090000C0EAEE80F00D9F80030CEF80030C8F33F
:10B0A00000138CF830306B78C4F888354FF4827117
:10B0B0002046FFF78DFD4FF49271FFF789FD18F0E0
:10B0C000010318BF0123C4F8503518F0020318BF5C
:10B0D0000123C4F840352B78032B00F2DC80DFE835
:10B0E00003F09CC4800218F0100F04D07A494FF48A
:10B0F000AD7001F0D1FE18F0080F04D0764940F28F
:10B100005B1001F0C9FE18F0040F04D072494FF42F
:10B11000AE7001F0C1FE2B6903F06043B3F1005F34
:10B1200096D14FF48073EA68C4F800326B68C4F8B3
:10B1300044252046C4F848354FF4A871FFF748FD70
:10B140004FF4B071FFF744FD4FF4A471FFF740FDD9
:10B1500001232362A360D4F85031002BFBD04FF4BD
:10B16000A8712046FFF734FDAB682A69C4F844256E
:10B17000C4F848355B4A342303FB07639A604FF4F5
:10B1800082730821002218F0080F04D128780328C0
:10B190001CBF012060503421794370187158002978
:10B1A0007ED1012523441968002900F086803421CE
:10B1B000D4F8C434C4F8C43401FB0766002186F80F
:10B1C0002F10002B3FF445AF13F0020F48F201227D
:10B1D00008BF032213F0040F48F2022318BF1A46D7
:10B1E00037E76B68EA68C4F84425C4F848352B692A
:10B1F00003F06042B2F1005F7FF42AAFAA68C4F89E
:10B2000034354FF48453C4F83825C4F8003234235D
:10B2100003FB076340F20222B0E76B68EA68C4F8F8
:10B22000442518F0200FC4F848354FF0340310D0EF
:10B2300003FB07634FF48072C4F80022294A9A6026
:10B240004FF4A471FFF7C4FC4FF4A47301222262EF
:10B2500097E74FF4007203FB0763C4F8002240F243
:10B2600002229A604FF48273F0E76B68EA68C4F8D0
:10B270003425C4F838354FF48053C4F800323423F1
:10B2800003FB076340F202229A600123236200213C
:10B290004FF4827376E74FF482730821072272E736
:10B2A00018F0040F1CBF4FF400738360342303FBBA
:10B2B0000766B368C4F80433CBE6D4F82411002938
:10B2C0003FF471AF4FF492712046FFF781FC256285
:10B2D0004FF48273656165E78870030040B5002014
:10B2E00002029C01000204000023435082B0435834
:10B2F0000193019B02B070470A4610B54FF48E715E
:10B30000FFF7F2FF136A9168C95C136A0133136295
:10B31000C0F81C1510BD024608B54FF492710068C4
:10B32000FFF7E2FF4FF484711068FFF7DDFF136849
:10B3300001221A6008BD8B690A4610B54FF484716A
:10B3400023B9FFF7D1FFD0F8183510BDFFF7CCFFB8
:10B35000536AD168D0F81805C854536A0133536250
:10B36000F3E70000024940F2C71001F095BD00BFAD
:10B37000766503001FB501238DF80030044BCDE93D
:10B380000110D3E900126846904705B05DF804FB50
:10B3900074B5002030B54C4AD2F8043313F4007F62
:10B3A00085B015464FD0D2F82431002B4BD04FF446
:10B3B00092711046FFF798FF4FF40173C2F80833FB
:10B3C000424B93F8291009B9012151603E490222EC
:10B3D0008DF80020D1F88024C1F8802403929A6966
:10B3E0000292DA6801920022C3E906226846D3E994
:10B3F000001290473448D0F81C315BB133490A6AD7
:10B400004B699A420A464BD291F82830002B47D11B
:10B41000FFF772FF2C4AD2F8443193B14FF4A27176
:10B420001046FFF761FF294B93F8291009B101215C
:10B4300011609A692AB100229A61586AD968FFF7A7
:10B4400099FF05B030BDD5F804335B07D2D5D5F8E8
:10B450000831002BCED01D4C1B482146FFF76BFF57
:10B46000636AA2699A422346C4D1E269E1684AB19B
:10B470002369E3600023606AA261E3616362FFF70E
:10B4800079FFB7E794F829200AB901226A600E4AC9
:10B490004FF40170C2F8080300229A61586AEEE77F
:10B4A0004FF48E710848FFF71FFF51690029B1D092
:10B4B0000023029191688DF8003001915361684634
:10B4C000D2E900139847A5E70020004074B500209A
:10B4D0002DE9F84F064692460C4619B97849AA203C
:10B4E00001F0DAFC3579774F2C2303FB057393F8D1
:10B4F0002A30002B40F0DE8073493068FEF7CCFE26
:10B500008046002840F0D980D4F80090B9F1FF3F80
:10B5100018D0B9F11F0F01D9FFF724FF4FF0A04356
:10B52000012202FA09F2C3F80825D4F800B0BBF1F1
:10B530001F0F994601D9FFF715FF0BF5E07B032399
:10B5400049F82B30D4F80490B9F1FF3F0BD0B9F192
:10B550001F0F01D9FFF706FF09F5E0794FF0A0436F
:10B56000002243F829203368A269217DC3F82425ED
:10B57000627D0A43C3F86C25D4E900020129C3F8AF
:10B580001425C3F80C0535D1D4F80890B9F1FF3F64
:10B590000BD0B9F11F0F01D9FFF7E4FE09F5E079EF
:10B5A0004FF0A043002243F82920D4F80C90B9F1C1
:10B5B000FF3F18D0B9F11F0F01D9FFF7D3FE4FF0AD
:10B5C000A043012202FA09F2C3F80825D4F80CB00E
:10B5D000BBF11F0F994601D9FFF7C4FE0BF5E07BC5
:10B5E000032349F82B30D4E902213368C3F8081546
:10B5F000C3F810252C236B43FA18C2F804A0226963
:10B60000FA50BAF1000F42D04FF48E713068247FA7
:10B61000FFF76AFE4FF4A2713068FFF765FE3368EA
:10B620002A4AC3F804234FEA1339A31E012B4FFA09
:10B6300089FA06D9631F022B03D925496B2001F033
:10B640002BFCBAF1000FACBF0AF16043214B4FEA6B
:10B650004414B8BF09F00F09E4B2AABF03F561436F
:10B6600003F8094083F8004333681B0B03F01F0104
:10B6700043F3C40323F0604323F0030303F1604367
:10B6800003F5614301228A40C3F880211A603368C0
:10B690000422C3F800252C2303FB05750023C5E90C
:10B6A000063385F829306B61012385F82A3040463E
:10B6B000BDE8F88F4FF00808F9E74FF01108F6E7FA
:10B6C000D870030074B5002095B30200800002001A
:10B6D000EE6F030014ED00E02DE9F84F354E0779C9
:10B6E0002C2303FB0763804693F82A30012B8A46FC
:10B6F000934604D0304940F2151001F0CDFBBAF169
:10B70000000F04D12C494FF48B7001F0C5FBBBF145
:10B71000000F04D1284940F2171001F0BDFB98F842
:10B7200004302C2404FB03635D69002D3ED107FB2C
:10B7300004694FF48E71C9F82050D8F80000C9F898
:10B7400014B0C9F808A089F82850FFF7CDFDD8F843
:10B750000000012383604946FFF7CEFDD9F804308D
:10B760004C462BBBD8F80050226A63699A4212D328
:10B77000D8F80030D3F81C21002AFBD00122DA606F
:10B7800000202C2303FB076600237361BDE8F88FBC
:10B7900094F8283043B9D5F81C31002BF8D049462D
:10B7A0002846FFF7A9FDDFE70F20EAE71120EDE7C4
:10B7B0002846EBE774B50020D87003002DE9F84364
:10B7C000474E05792C2303FB0563074693F82A307F
:10B7D000012B8846144604D0424940F2691001F01A
:10B7E0005BFBB8F1000F04D13E494FF4B57001F096
:10B7F00053FB24B93B4940F26B1001F04DFB2C2365
:10B8000003FB0563596821B13B684FF40172C3F82B
:10B8100008232C2303FB05639A6952B1DA69002AD5
:10B820003FD021B13B684FF40172C3F804231120CB
:10B8300035E09C61C3F80C805A62DA612C2303FB6B
:10B84000056393F829301BB912B93846FFF763FD39
:10B850004FF02C0909FB05683868D8F80430002B34
:10B8600035D14FF4A271FFF73FFDC1463868D0F8DB
:10B870002431D0F80821D0F84441BAB90CB9002BD2
:10B88000F4D02C2202FB05650022AA6123BB2CBB4D
:10B8900095F829103B680122B9B11A600020BDE873
:10B8A000F883C3F81080DC610122C7E7002BE8D1E0
:10B8B000002CE6D14946FFF73EFDD8F82430D8F8F1
:10B8C00018209A42D2D82346DBE75A60E6E74FF4C5
:10B8D0000173C0F80433E1E70320E0E70F20DEE75F
:10B8E00074B50020D87003000023435082B0435841
:10B8F0000193019B02B07047024940F2C71001F06A
:10B90000CBBA00BF766503001FB501238DF8003068
:10B91000054B8DF8080001916846D3E90012904765
:10B9200005B05DF804FB00BFA0B500207FB5384A24
:10B93000D2F82461002E49D010464FF49271FFF7DF
:10B94000D3FF02238DF80030D2F88034C2F880345F
:10B950000393D2F83C358DF808302E4BDA6801920B
:10B960000022C3E906226846D3E900129047284A1C
:10B97000D2F8443173B14FF4A2711046FFF7B4FF0F
:10B98000244B996931B100219961D2F83C05D968FD
:10B99000FFF7BAFF1E4AD2F82031ABB14FF49071D5
:10B9A0001046FFF7A1FF1B4B596969B1D2F84C153E
:10B9B0008DF80810002299688DF8002001915A61D5
:10B9C0006846D3E90012904704B070BDD2F8103138
:10B9D000002BCCD04FF488711046FFF785FF0D4B3C
:10B9E000D2F83C0599698842C1D1DC69D96864B153
:10B9F000D2F8005225F02005C2F800521A699C6165
:10BA0000DA60DE61FFF780FFB1E79C61FAE700BF13
:10BA100000200040A0B500202DE9F84F05469246D1
:10BA20000C4619B97C49BC2001F036FA2E797B4FBF
:10BA3000242303FB067393F82030002B40F0E680AC
:10BA400077492868FEF728FC8046002840F0E1800E
:10BA5000D4F80090B9F1FF3F18D0B9F11F0F01D908
:10BA6000FFF74AFF4FF0A043012202FA09F2C3F8A0
:10BA70000825D4F800B0BBF11F0F994601D9FFF794
:10BA80003BFF0BF5E07B032349F82B30D4F80490FF
:10BA9000B9F1FF3F0BD0B9F11F0F01D9FFF72CFF10
:10BAA00009F5E0794FF0A043002243F829202B68E4
:10BAB000A269217DC3F82425627D0A43C3F86C2561
:10BAC000D4E900200129C3F80C25C3F8140535D1A9
:10BAD000D4F80890B9F1FF3F0BD0B9F11F0F01D98D
